{
  "_format": "hh-sol-artifact-1",
  "contractName": "Marketplace",
  "sourceName": "contracts/Marketplace.sol",
  "abi": [
    {
      "inputs": [
        {
          "internalType": "address",
          "name": "owner",
          "type": "address"
        }
      ],
      "name": "OwnableInvalidOwner",
      "type": "error"
    },
    {
      "inputs": [
        {
          "internalType": "address",
          "name": "account",
          "type": "address"
        }
      ],
      "name": "OwnableUnauthorizedAccount",
      "type": "error"
    },
    {
      "inputs": [],
      "name": "ReentrancyGuardReentrantCall",
      "type": "error"
    },
    {
      "anonymous": false,
      "inputs": [
        {
          "indexed": false,
          "internalType": "uint256",
          "name": "itemId",
          "type": "uint256"
        },
        {
          "indexed": true,
          "internalType": "address",
          "name": "nft",
          "type": "address"
        },
        {
          "indexed": false,
          "internalType": "uint256",
          "name": "tokenId",
          "type": "uint256"
        },
        {
          "indexed": false,
          "internalType": "uint256",
          "name": "price",
          "type": "uint256"
        },
        {
          "indexed": true,
          "internalType": "address",
          "name": "seller",
          "type": "address"
        },
        {
          "indexed": true,
          "internalType": "address",
          "name": "buyer",
          "type": "address"
        }
      ],
      "name": "Bought",
      "type": "event"
    },
    {
      "anonymous": false,
      "inputs": [
        {
          "indexed": true,
          "internalType": "uint256",
          "name": "itemId",
          "type": "uint256"
        }
      ],
      "name": "MarketItemCancelled",
      "type": "event"
    },
    {
      "anonymous": false,
      "inputs": [
        {
          "indexed": true,
          "internalType": "uint256",
          "name": "itemId",
          "type": "uint256"
        },
        {
          "indexed": true,
          "internalType": "address",
          "name": "nftContract",
          "type": "address"
        },
        {
          "indexed": true,
          "internalType": "uint256",
          "name": "tokenId",
          "type": "uint256"
        },
        {
          "indexed": false,
          "internalType": "address",
          "name": "seller",
          "type": "address"
        },
        {
          "indexed": false,
          "internalType": "address",
          "name": "owner",
          "type": "address"
        },
        {
          "indexed": false,
          "internalType": "uint256",
          "name": "price",
          "type": "uint256"
        }
      ],
      "name": "MarketItemCreated",
      "type": "event"
    },
    {
      "anonymous": false,
      "inputs": [
        {
          "indexed": true,
          "internalType": "address",
          "name": "previousOwner",
          "type": "address"
        },
        {
          "indexed": true,
          "internalType": "address",
          "name": "newOwner",
          "type": "address"
        }
      ],
      "name": "OwnershipTransferred",
      "type": "event"
    },
    {
      "anonymous": false,
      "inputs": [
        {
          "indexed": false,
          "internalType": "address",
          "name": "",
          "type": "address"
        },
        {
          "indexed": false,
          "internalType": "address",
          "name": "",
          "type": "address"
        }
      ],
      "name": "TokenCreated",
      "type": "event"
    },
    {
      "stateMutability": "payable",
      "type": "fallback"
    },
    {
      "inputs": [
        {
          "internalType": "uint256",
          "name": "",
          "type": "uint256"
        }
      ],
      "name": "CollectionAddresses",
      "outputs": [
        {
          "internalType": "address",
          "name": "",
          "type": "address"
        }
      ],
      "stateMutability": "view",
      "type": "function"
    },
    {
      "inputs": [
        {
          "internalType": "address",
          "name": "contractAddress",
          "type": "address"
        },
        {
          "internalType": "address[]",
          "name": "addresses",
          "type": "address[]"
        },
        {
          "internalType": "string[]",
          "name": "uris",
          "type": "string[]"
        },
        {
          "internalType": "uint256",
          "name": "start",
          "type": "uint256"
        },
        {
          "internalType": "uint256",
          "name": "end",
          "type": "uint256"
        }
      ],
      "name": "batchMint",
      "outputs": [],
      "stateMutability": "nonpayable",
      "type": "function"
    },
    {
      "inputs": [
        {
          "internalType": "uint256",
          "name": "itemId",
          "type": "uint256"
        }
      ],
      "name": "cancelMarketItem",
      "outputs": [],
      "stateMutability": "nonpayable",
      "type": "function"
    },
    {
      "inputs": [
        {
          "internalType": "address",
          "name": "nftContractAddress",
          "type": "address"
        },
        {
          "internalType": "uint256",
          "name": "tokenId",
          "type": "uint256"
        },
        {
          "internalType": "uint256",
          "name": "price",
          "type": "uint256"
        }
      ],
      "name": "createMarketItem",
      "outputs": [],
      "stateMutability": "nonpayable",
      "type": "function"
    },
    {
      "inputs": [
        {
          "internalType": "string",
          "name": "name",
          "type": "string"
        },
        {
          "internalType": "string",
          "name": "symbol",
          "type": "string"
        }
      ],
      "name": "createToken",
      "outputs": [],
      "stateMutability": "nonpayable",
      "type": "function"
    },
    {
      "inputs": [
        {
          "internalType": "uint256",
          "name": "itemId",
          "type": "uint256"
        }
      ],
      "name": "fetchMarketItems",
      "outputs": [
        {
          "components": [
            {
              "internalType": "uint256",
              "name": "itemId",
              "type": "uint256"
            },
            {
              "internalType": "address",
              "name": "nftContract",
              "type": "address"
            },
            {
              "internalType": "uint256",
              "name": "tokenId",
              "type": "uint256"
            },
            {
              "internalType": "address payable",
              "name": "seller",
              "type": "address"
            },
            {
              "internalType": "address payable",
              "name": "owner",
              "type": "address"
            },
            {
              "internalType": "uint256",
              "name": "price",
              "type": "uint256"
            },
            {
              "internalType": "bool",
              "name": "sold",
              "type": "bool"
            }
          ],
          "internalType": "struct Marketplace.MarketItem",
          "name": "",
          "type": "tuple"
        }
      ],
      "stateMutability": "view",
      "type": "function"
    },
    {
      "inputs": [
        {
          "internalType": "address",
          "name": "user",
          "type": "address"
        }
      ],
      "name": "fetchUserItems",
      "outputs": [
        {
          "components": [
            {
              "internalType": "uint256",
              "name": "itemId",
              "type": "uint256"
            },
            {
              "internalType": "address",
              "name": "nftContract",
              "type": "address"
            },
            {
              "internalType": "uint256",
              "name": "tokenId",
              "type": "uint256"
            },
            {
              "internalType": "address payable",
              "name": "seller",
              "type": "address"
            },
            {
              "internalType": "address payable",
              "name": "owner",
              "type": "address"
            },
            {
              "internalType": "uint256",
              "name": "price",
              "type": "uint256"
            },
            {
              "internalType": "bool",
              "name": "sold",
              "type": "bool"
            }
          ],
          "internalType": "struct Marketplace.MarketItem[]",
          "name": "",
          "type": "tuple[]"
        }
      ],
      "stateMutability": "view",
      "type": "function"
    },
    {
      "inputs": [],
      "name": "getBalance",
      "outputs": [
        {
          "internalType": "uint256",
          "name": "",
          "type": "uint256"
        }
      ],
      "stateMutability": "view",
      "type": "function"
    },
    {
      "inputs": [],
      "name": "getNFTCount",
      "outputs": [
        {
          "internalType": "uint256",
          "name": "",
          "type": "uint256"
        }
      ],
      "stateMutability": "view",
      "type": "function"
    },
    {
      "inputs": [
        {
          "internalType": "uint256",
          "name": "",
          "type": "uint256"
        }
      ],
      "name": "marketItems",
      "outputs": [
        {
          "internalType": "uint256",
          "name": "itemId",
          "type": "uint256"
        },
        {
          "internalType": "address",
          "name": "nftContract",
          "type": "address"
        },
        {
          "internalType": "uint256",
          "name": "tokenId",
          "type": "uint256"
        },
        {
          "internalType": "address payable",
          "name": "seller",
          "type": "address"
        },
        {
          "internalType": "address payable",
          "name": "owner",
          "type": "address"
        },
        {
          "internalType": "uint256",
          "name": "price",
          "type": "uint256"
        },
        {
          "internalType": "bool",
          "name": "sold",
          "type": "bool"
        }
      ],
      "stateMutability": "view",
      "type": "function"
    },
    {
      "inputs": [
        {
          "internalType": "address",
          "name": "contractAddress",
          "type": "address"
        },
        {
          "internalType": "address",
          "name": "to",
          "type": "address"
        },
        {
          "internalType": "string",
          "name": "uri",
          "type": "string"
        }
      ],
      "name": "mint",
      "outputs": [],
      "stateMutability": "nonpayable",
      "type": "function"
    },
    {
      "inputs": [],
      "name": "owner",
      "outputs": [
        {
          "internalType": "address",
          "name": "",
          "type": "address"
        }
      ],
      "stateMutability": "view",
      "type": "function"
    },
    {
      "inputs": [],
      "name": "renounceOwnership",
      "outputs": [],
      "stateMutability": "nonpayable",
      "type": "function"
    },
    {
      "inputs": [
        {
          "internalType": "uint256",
          "name": "itemId",
          "type": "uint256"
        }
      ],
      "name": "sellMarketItem",
      "outputs": [],
      "stateMutability": "payable",
      "type": "function"
    },
    {
      "inputs": [
        {
          "internalType": "address",
          "name": "newOwner",
          "type": "address"
        }
      ],
      "name": "transferOwnership",
      "outputs": [],
      "stateMutability": "nonpayable",
      "type": "function"
    },
    {
      "stateMutability": "payable",
      "type": "receive"
    }
  ],
  "bytecode": "0x60806040523480156200001157600080fd5b5033600073ffffffffffffffffffffffffffffffffffffffff168173ffffffffffffffffffffffffffffffffffffffff1603620000885760006040517f1e4fbdf70000000000000000000000000000000000000000000000000000000081526004016200007f9190620001b0565b60405180910390fd5b6200009981620000a760201b60201c565b5060018081905550620001cd565b60008060009054906101000a900473ffffffffffffffffffffffffffffffffffffffff169050816000806101000a81548173ffffffffffffffffffffffffffffffffffffffff021916908373ffffffffffffffffffffffffffffffffffffffff1602179055508173ffffffffffffffffffffffffffffffffffffffff168173ffffffffffffffffffffffffffffffffffffffff167f8be0079c531659141344cd1fd0a4f28419497f9722a3daafe3b4186f6b6457e060405160405180910390a35050565b600073ffffffffffffffffffffffffffffffffffffffff82169050919050565b600062000198826200016b565b9050919050565b620001aa816200018b565b82525050565b6000602082019050620001c760008301846200019f565b92915050565b6155fe80620001dd6000396000f3fe608060405260043610620001035760003560e01c806358eb2df5116200009757806391ddfe0a116200006157806391ddfe0a1462000357578063a6e22b021462000377578063d75f2a1214620003a5578063f2fde38b14620003d3576200010b565b806358eb2df5146200029b5780636a275a1614620002c9578063715018a6146200030d5780638da5cb5b1462000327576200010b565b80633155cd0911620000d95780633155cd0914620001995780633faf25e714620001dd57806351f28e14146200022157806354279637146200026b576200010b565b806312065fe0146200010d578063221375a6146200013d5780632f2f2d56146200016b576200010b565b366200010b57005b005b3480156200011a57600080fd5b506200012562000401565b6040516200013491906200197e565b60405180910390f35b3480156200014a57600080fd5b5062000169600480360381019062000163919062001b76565b62000409565b005b3480156200017857600080fd5b5062000197600480360381019062000191919062001bf1565b620005e0565b005b348015620001a657600080fd5b50620001c56004803603810190620001bf919062001ca7565b620006c6565b604051620001d4919062001dd9565b60405180910390f35b348015620001ea57600080fd5b5062000209600480360381019062000203919062001ca7565b62000830565b60405162000218919062001e07565b60405180910390f35b3480156200022e57600080fd5b506200024d600480360381019062000247919062001ca7565b62000870565b60405162000262979695949392919062001e46565b60405180910390f35b3480156200027857600080fd5b50620002836200091f565b6040516200029291906200197e565b60405180910390f35b348015620002a857600080fd5b50620002c76004803603810190620002c1919062001ec3565b62000925565b005b348015620002d657600080fd5b50620002f56004803603810190620002ef919062001f1f565b62000bcc565b604051620003049190620020aa565b60405180910390f35b3480156200031a57600080fd5b506200032562000f0c565b005b3480156200033457600080fd5b506200033f62000f24565b6040516200034e919062001e07565b60405180910390f35b6200037560048036038101906200036f919062001ca7565b62000f4d565b005b3480156200038457600080fd5b50620003a360048036038101906200039d919062001ca7565b62001259565b005b348015620003b257600080fd5b50620003d16004803603810190620003cb9190620022a0565b620013f2565b005b348015620003e057600080fd5b50620003ff6004803603810190620003f9919062001f1f565b6200169b565b005b600047905090565b60008373ffffffffffffffffffffffffffffffffffffffff1663d204c45e84846040518363ffffffff1660e01b815260040162000448929190620023ef565b6020604051808303816000875af115801562000468573d6000803e3d6000fd5b505050506040513d601f19601f820116820180604052508101906200048e91906200243a565b9050600260008473ffffffffffffffffffffffffffffffffffffffff1673ffffffffffffffffffffffffffffffffffffffff168152602001908152602001600020849080600181540180825580915050600190039060005260206000200160009091909190916101000a81548173ffffffffffffffffffffffffffffffffffffffff021916908373ffffffffffffffffffffffffffffffffffffffff160217905550600360008473ffffffffffffffffffffffffffffffffffffffff1673ffffffffffffffffffffffffffffffffffffffff16815260200190815260200160002081908060018154018082558091505060019003906000526020600020016000909190919091505580600460008673ffffffffffffffffffffffffffffffffffffffff1673ffffffffffffffffffffffffffffffffffffffff1681526020019081526020016000208190555050505050565b600082823033604051620005f490620018d4565b6200060394939291906200246c565b604051809103906000f08015801562000620573d6000803e3d6000fd5b5090506006819080600181540180825580915050600190039060005260206000200160009091909190916101000a81548173ffffffffffffffffffffffffffffffffffffffff021916908373ffffffffffffffffffffffffffffffffffffffff1602179055507fd5f9bdf12adf29dab0248c349842c3822d53ae2bb4f36352f301630d018c81393382604051620006b9929190620024c7565b60405180910390a1505050565b620006d0620018e2565b600560008381526020019081526020016000206040518060e0016040529081600082015481526020016001820160009054906101000a900473ffffffffffffffffffffffffffffffffffffffff1673ffffffffffffffffffffffffffffffffffffffff1673ffffffffffffffffffffffffffffffffffffffff168152602001600282015481526020016003820160009054906101000a900473ffffffffffffffffffffffffffffffffffffffff1673ffffffffffffffffffffffffffffffffffffffff1673ffffffffffffffffffffffffffffffffffffffff1681526020016004820160009054906101000a900473ffffffffffffffffffffffffffffffffffffffff1673ffffffffffffffffffffffffffffffffffffffff1673ffffffffffffffffffffffffffffffffffffffff168152602001600582015481526020016006820160009054906101000a900460ff1615151515815250509050919050565b600681815481106200084157600080fd5b906000526020600020016000915054906101000a900473ffffffffffffffffffffffffffffffffffffffff1681565b60056020528060005260406000206000915090508060000154908060010160009054906101000a900473ffffffffffffffffffffffffffffffffffffffff16908060020154908060030160009054906101000a900473ffffffffffffffffffffffffffffffffffffffff16908060040160009054906101000a900473ffffffffffffffffffffffffffffffffffffffff16908060050154908060060160009054906101000a900460ff16905087565b60075481565b6200092f62001728565b600060085490506040518060e001604052808281526020018573ffffffffffffffffffffffffffffffffffffffff1681526020018481526020013373ffffffffffffffffffffffffffffffffffffffff168152602001600073ffffffffffffffffffffffffffffffffffffffff16815260200183815260200160001515815250600560008381526020019081526020016000206000820151816000015560208201518160010160006101000a81548173ffffffffffffffffffffffffffffffffffffffff021916908373ffffffffffffffffffffffffffffffffffffffff1602179055506040820151816002015560608201518160030160006101000a81548173ffffffffffffffffffffffffffffffffffffffff021916908373ffffffffffffffffffffffffffffffffffffffff16021790555060808201518160040160006101000a81548173ffffffffffffffffffffffffffffffffffffffff021916908373ffffffffffffffffffffffffffffffffffffffff16021790555060a0820151816005015560c08201518160060160006101000a81548160ff0219169083151502179055509050506008600081548092919062000aed9062002523565b91905055508373ffffffffffffffffffffffffffffffffffffffff166323b872dd3330866040518463ffffffff1660e01b815260040162000b319392919062002570565b600060405180830381600087803b15801562000b4c57600080fd5b505af115801562000b61573d6000803e3d6000fd5b50505050828473ffffffffffffffffffffffffffffffffffffffff16827f2ad024d53a0dc50c130967f8d4941927ee087ea31394cebb2b9599d3706c9c003360008760405162000bb49392919062002570565b60405180910390a45062000bc76200176f565b505050565b60606000600260008473ffffffffffffffffffffffffffffffffffffffff1673ffffffffffffffffffffffffffffffffffffffff16815260200190815260200160002080548060200260200160405190810160405280929190818152602001828054801562000c9157602002820191906000526020600020905b8160009054906101000a900473ffffffffffffffffffffffffffffffffffffffff1673ffffffffffffffffffffffffffffffffffffffff168152602001906001019080831162000c46575b505050505090506000815167ffffffffffffffff81111562000cb85762000cb762001a2f565b5b60405190808252806020026020018201604052801562000cf557816020015b62000ce1620018e2565b81526020019060019003908162000cd75790505b50905060005b60085481101562000f01578473ffffffffffffffffffffffffffffffffffffffff166005600083815260200190815260200160002060040160009054906101000a900473ffffffffffffffffffffffffffffffffffffffff1673ffffffffffffffffffffffffffffffffffffffff160362000eeb57600560008281526020019081526020016000206040518060e0016040529081600082015481526020016001820160009054906101000a900473ffffffffffffffffffffffffffffffffffffffff1673ffffffffffffffffffffffffffffffffffffffff1673ffffffffffffffffffffffffffffffffffffffff168152602001600282015481526020016003820160009054906101000a900473ffffffffffffffffffffffffffffffffffffffff1673ffffffffffffffffffffffffffffffffffffffff1673ffffffffffffffffffffffffffffffffffffffff1681526020016004820160009054906101000a900473ffffffffffffffffffffffffffffffffffffffff1673ffffffffffffffffffffffffffffffffffffffff1673ffffffffffffffffffffffffffffffffffffffff168152602001600582015481526020016006820160009054906101000a900460ff16151515158152505082828151811062000edf5762000ede620025ad565b5b60200260200101819052505b808062000ef89062002523565b91505062000cfb565b508092505050919050565b62000f1662001778565b62000f22600062001808565b565b60008060009054906101000a900473ffffffffffffffffffffffffffffffffffffffff16905090565b62000f5762001728565b60006005600083815260200190815260200160002090503481600501541462000fb7576040517f08c379a000000000000000000000000000000000000000000000000000000000815260040162000fae9062002652565b60405180910390fd5b600015158160060160009054906101000a900460ff1615151462001012576040517f08c379a00000000000000000000000000000000000000000000000000000000081526004016200100990620026c4565b60405180910390fd5b8060030160009054906101000a900473ffffffffffffffffffffffffffffffffffffffff1673ffffffffffffffffffffffffffffffffffffffff166108fc349081150290604051600060405180830381858888f193505050501580156200107d573d6000803e3d6000fd5b50338160040160006101000a81548173ffffffffffffffffffffffffffffffffffffffff021916908373ffffffffffffffffffffffffffffffffffffffff16021790555060018160060160006101000a81548160ff0219169083151502179055508060010160009054906101000a900473ffffffffffffffffffffffffffffffffffffffff1673ffffffffffffffffffffffffffffffffffffffff166323b872dd303384600201546040518463ffffffff1660e01b8152600401620011459392919062002570565b600060405180830381600087803b1580156200116057600080fd5b505af115801562001175573d6000803e3d6000fd5b505050503373ffffffffffffffffffffffffffffffffffffffff168160030160009054906101000a900473ffffffffffffffffffffffffffffffffffffffff1673ffffffffffffffffffffffffffffffffffffffff168260010160009054906101000a900473ffffffffffffffffffffffffffffffffffffffff1673ffffffffffffffffffffffffffffffffffffffff167f8b4c9c8a607d67b321582dd8461041b1dc2ceeca70c8b7f37f8e02095cf2e76d85856002015486600501546040516200124393929190620026e6565b60405180910390a450620012566200176f565b50565b60006005600083815260200190815260200160002090503373ffffffffffffffffffffffffffffffffffffffff168160030160009054906101000a900473ffffffffffffffffffffffffffffffffffffffff1673ffffffffffffffffffffffffffffffffffffffff161462001305576040517f08c379a0000000000000000000000000000000000000000000000000000000008152600401620012fc9062002799565b60405180910390fd5b600015158160060160009054906101000a900460ff1615151462001360576040517f08c379a00000000000000000000000000000000000000000000000000000000081526004016200135790620026c4565b60405180910390fd5b60008160040160006101000a81548173ffffffffffffffffffffffffffffffffffffffff021916908373ffffffffffffffffffffffffffffffffffffffff16021790555060008160060160006101000a81548160ff021916908315150217905550817fb44d5981f3bd81a0185dad0967e03df817142f923e4b93a322e68f34ec23cba960405160405180910390a25050565b6000808390505b828110156200168b5760008773ffffffffffffffffffffffffffffffffffffffff1663d204c45e888481518110620014365762001435620025ad565b5b6020026020010151888581518110620014545762001453620025ad565b5b60200260200101516040518363ffffffff1660e01b81526004016200147b929190620023ef565b6020604051808303816000875af11580156200149b573d6000803e3d6000fd5b505050506040513d601f19601f82011682018060405250810190620014c191906200243a565b905060026000888481518110620014dd57620014dc620025ad565b5b602002602001015173ffffffffffffffffffffffffffffffffffffffff1673ffffffffffffffffffffffffffffffffffffffff168152602001908152602001600020889080600181540180825580915050600190039060005260206000200160009091909190916101000a81548173ffffffffffffffffffffffffffffffffffffffff021916908373ffffffffffffffffffffffffffffffffffffffff160217905550600360008884815181106200159a5762001599620025ad565b5b602002602001015173ffffffffffffffffffffffffffffffffffffffff1673ffffffffffffffffffffffffffffffffffffffff16815260200190815260200160002081908060018154018082558091505060019003906000526020600020016000909190919091505580600460008985815181106200161e576200161d620025ad565b5b602002602001015173ffffffffffffffffffffffffffffffffffffffff1673ffffffffffffffffffffffffffffffffffffffff168152602001908152602001600020819055508280620016719062002523565b935050508080620016829062002523565b915050620013f9565b5080600781905550505050505050565b620016a562001778565b600073ffffffffffffffffffffffffffffffffffffffff168173ffffffffffffffffffffffffffffffffffffffff16036200171a5760006040517f1e4fbdf700000000000000000000000000000000000000000000000000000000815260040162001711919062001e07565b60405180910390fd5b620017258162001808565b50565b60026001540362001765576040517f3ee5aeb500000000000000000000000000000000000000000000000000000000815260040160405180910390fd5b6002600181905550565b60018081905550565b62001782620018cc565b73ffffffffffffffffffffffffffffffffffffffff16620017a262000f24565b73ffffffffffffffffffffffffffffffffffffffff16146200180657620017c8620018cc565b6040517f118cdaa7000000000000000000000000000000000000000000000000000000008152600401620017fd919062001e07565b60405180910390fd5b565b60008060009054906101000a900473ffffffffffffffffffffffffffffffffffffffff169050816000806101000a81548173ffffffffffffffffffffffffffffffffffffffff021916908373ffffffffffffffffffffffffffffffffffffffff1602179055508173ffffffffffffffffffffffffffffffffffffffff168173ffffffffffffffffffffffffffffffffffffffff167f8be0079c531659141344cd1fd0a4f28419497f9722a3daafe3b4186f6b6457e060405160405180910390a35050565b600033905090565b612e0d80620027bc83390190565b6040518060e0016040528060008152602001600073ffffffffffffffffffffffffffffffffffffffff16815260200160008152602001600073ffffffffffffffffffffffffffffffffffffffff168152602001600073ffffffffffffffffffffffffffffffffffffffff168152602001600081526020016000151581525090565b6000819050919050565b620019788162001963565b82525050565b60006020820190506200199560008301846200196d565b92915050565b6000604051905090565b600080fd5b600080fd5b600073ffffffffffffffffffffffffffffffffffffffff82169050919050565b6000620019dc82620019af565b9050919050565b620019ee81620019cf565b8114620019fa57600080fd5b50565b60008135905062001a0e81620019e3565b92915050565b600080fd5b600080fd5b6000601f19601f8301169050919050565b7f4e487b7100000000000000000000000000000000000000000000000000000000600052604160045260246000fd5b62001a698262001a1e565b810181811067ffffffffffffffff8211171562001a8b5762001a8a62001a2f565b5b80604052505050565b600062001aa06200199b565b905062001aae828262001a5e565b919050565b600067ffffffffffffffff82111562001ad15762001ad062001a2f565b5b62001adc8262001a1e565b9050602081019050919050565b82818337600083830152505050565b600062001b0f62001b098462001ab3565b62001a94565b90508281526020810184848401111562001b2e5762001b2d62001a19565b5b62001b3b84828562001ae9565b509392505050565b600082601f83011262001b5b5762001b5a62001a14565b5b813562001b6d84826020860162001af8565b91505092915050565b60008060006060848603121562001b925762001b91620019a5565b5b600062001ba286828701620019fd565b935050602062001bb586828701620019fd565b925050604084013567ffffffffffffffff81111562001bd95762001bd8620019aa565b5b62001be78682870162001b43565b9150509250925092565b6000806040838503121562001c0b5762001c0a620019a5565b5b600083013567ffffffffffffffff81111562001c2c5762001c2b620019aa565b5b62001c3a8582860162001b43565b925050602083013567ffffffffffffffff81111562001c5e5762001c5d620019aa565b5b62001c6c8582860162001b43565b9150509250929050565b62001c818162001963565b811462001c8d57600080fd5b50565b60008135905062001ca18162001c76565b92915050565b60006020828403121562001cc05762001cbf620019a5565b5b600062001cd08482850162001c90565b91505092915050565b62001ce48162001963565b82525050565b62001cf581620019cf565b82525050565b600062001d0882620019af565b9050919050565b62001d1a8162001cfb565b82525050565b60008115159050919050565b62001d378162001d20565b82525050565b60e08201600082015162001d55600085018262001cd9565b50602082015162001d6a602085018262001cea565b50604082015162001d7f604085018262001cd9565b50606082015162001d94606085018262001d0f565b50608082015162001da9608085018262001d0f565b5060a082015162001dbe60a085018262001cd9565b5060c082015162001dd360c085018262001d2c565b50505050565b600060e08201905062001df0600083018462001d3d565b92915050565b62001e0181620019cf565b82525050565b600060208201905062001e1e600083018462001df6565b92915050565b62001e2f8162001cfb565b82525050565b62001e408162001d20565b82525050565b600060e08201905062001e5d600083018a6200196d565b62001e6c602083018962001df6565b62001e7b60408301886200196d565b62001e8a606083018762001e24565b62001e99608083018662001e24565b62001ea860a08301856200196d565b62001eb760c083018462001e35565b98975050505050505050565b60008060006060848603121562001edf5762001ede620019a5565b5b600062001eef86828701620019fd565b935050602062001f028682870162001c90565b925050604062001f158682870162001c90565b9150509250925092565b60006020828403121562001f385762001f37620019a5565b5b600062001f4884828501620019fd565b91505092915050565b600081519050919050565b600082825260208201905092915050565b6000819050602082019050919050565b60e08201600082015162001f95600085018262001cd9565b50602082015162001faa602085018262001cea565b50604082015162001fbf604085018262001cd9565b50606082015162001fd4606085018262001d0f565b50608082015162001fe9608085018262001d0f565b5060a082015162001ffe60a085018262001cd9565b5060c08201516200201360c085018262001d2c565b50505050565b600062002027838362001f7d565b60e08301905092915050565b6000602082019050919050565b60006200204d8262001f51565b62002059818562001f5c565b9350620020668362001f6d565b8060005b838110156200209d57815162002081888262002019565b97506200208e8362002033565b9250506001810190506200206a565b5085935050505092915050565b60006020820190508181036000830152620020c6818462002040565b905092915050565b600067ffffffffffffffff821115620020ec57620020eb62001a2f565b5b602082029050602081019050919050565b600080fd5b6000620021196200211384620020ce565b62001a94565b905080838252602082019050602084028301858111156200213f576200213e620020fd565b5b835b818110156200216c5780620021578882620019fd565b84526020840193505060208101905062002141565b5050509392505050565b600082601f8301126200218e576200218d62001a14565b5b8135620021a084826020860162002102565b91505092915050565b600067ffffffffffffffff821115620021c757620021c662001a2f565b5b602082029050602081019050919050565b6000620021ef620021e984620021a9565b62001a94565b90508083825260208201905060208402830185811115620022155762002214620020fd565b5b835b818110156200226357803567ffffffffffffffff8111156200223e576200223d62001a14565b5b8086016200224d898262001b43565b8552602085019450505060208101905062002217565b5050509392505050565b600082601f83011262002285576200228462001a14565b5b813562002297848260208601620021d8565b91505092915050565b600080600080600060a08688031215620022bf57620022be620019a5565b5b6000620022cf88828901620019fd565b955050602086013567ffffffffffffffff811115620022f357620022f2620019aa565b5b620023018882890162002176565b945050604086013567ffffffffffffffff811115620023255762002324620019aa565b5b62002333888289016200226d565b9350506060620023468882890162001c90565b9250506080620023598882890162001c90565b9150509295509295909350565b600081519050919050565b600082825260208201905092915050565b60005b83811015620023a257808201518184015260208101905062002385565b60008484015250505050565b6000620023bb8262002366565b620023c7818562002371565b9350620023d981856020860162002382565b620023e48162001a1e565b840191505092915050565b600060408201905062002406600083018562001df6565b81810360208301526200241a8184620023ae565b90509392505050565b600081519050620024348162001c76565b92915050565b600060208284031215620024535762002452620019a5565b5b6000620024638482850162002423565b91505092915050565b60006080820190508181036000830152620024888187620023ae565b905081810360208301526200249e8186620023ae565b9050620024af604083018562001df6565b620024be606083018462001df6565b95945050505050565b6000604082019050620024de600083018562001df6565b620024ed602083018462001df6565b9392505050565b7f4e487b7100000000000000000000000000000000000000000000000000000000600052601160045260246000fd5b6000620025308262001963565b91507fffffffffffffffffffffffffffffffffffffffffffffffffffffffffffffffff8203620025655762002564620024f4565b5b600182019050919050565b600060608201905062002587600083018662001df6565b62002596602083018562001df6565b620025a560408301846200196d565b949350505050565b7f4e487b7100000000000000000000000000000000000000000000000000000000600052603260045260246000fd5b7f506c65617365207375626d6974207468652061736b696e67207072696365206960008201527f6e206f7264657220746f20636f6d706c65746520746865207075726368617365602082015250565b60006200263a60408362002371565b91506200264782620025dc565b604082019050919050565b600060208201905081810360008301526200266d816200262b565b9050919050565b7f4974656d20697320616c726561647920736f6c64000000000000000000000000600082015250565b6000620026ac60148362002371565b9150620026b98262002674565b602082019050919050565b60006020820190508181036000830152620026df816200269d565b9050919050565b6000606082019050620026fd60008301866200196d565b6200270c60208301856200196d565b6200271b60408301846200196d565b949350505050565b7f596f7520617265206e6f74207468652073656c6c6572206f662074686973206960008201527f74656d0000000000000000000000000000000000000000000000000000000000602082015250565b60006200278160238362002371565b91506200278e8262002723565b604082019050919050565b60006020820190508181036000830152620027b48162002772565b905091905056fe60806040523480156200001157600080fd5b5060405162002e0d38038062002e0d83398181016040528101906200003791906200044c565b838381600090816200004a919062000747565b5080600190816200005c919062000747565b50505081600860006101000a81548173ffffffffffffffffffffffffffffffffffffffff021916908373ffffffffffffffffffffffffffffffffffffffff160217905550620000d681600860009054906101000a900473ffffffffffffffffffffffffffffffffffffffff166001620000e060201b60201c565b5050505062000896565b600073ffffffffffffffffffffffffffffffffffffffff168273ffffffffffffffffffffffffffffffffffffffff16036200015457816040517f5b08ba180000000000000000000000000000000000000000000000000000000081526004016200014b91906200083f565b60405180910390fd5b80600560008573ffffffffffffffffffffffffffffffffffffffff1673ffffffffffffffffffffffffffffffffffffffff16815260200190815260200160002060008473ffffffffffffffffffffffffffffffffffffffff1673ffffffffffffffffffffffffffffffffffffffff16815260200190815260200160002060006101000a81548160ff0219169083151502179055508173ffffffffffffffffffffffffffffffffffffffff168373ffffffffffffffffffffffffffffffffffffffff167f17307eab39ab6107e8899845ad3d59bd9653f200f220920489ca2b5937696c318360405162000247919062000879565b60405180910390a3505050565b6000604051905090565b600080fd5b600080fd5b600080fd5b600080fd5b6000601f19601f8301169050919050565b7f4e487b7100000000000000000000000000000000000000000000000000000000600052604160045260246000fd5b620002bd8262000272565b810181811067ffffffffffffffff82111715620002df57620002de62000283565b5b80604052505050565b6000620002f462000254565b9050620003028282620002b2565b919050565b600067ffffffffffffffff82111562000325576200032462000283565b5b620003308262000272565b9050602081019050919050565b60005b838110156200035d57808201518184015260208101905062000340565b60008484015250505050565b6000620003806200037a8462000307565b620002e8565b9050828152602081018484840111156200039f576200039e6200026d565b5b620003ac8482856200033d565b509392505050565b600082601f830112620003cc57620003cb62000268565b5b8151620003de84826020860162000369565b91505092915050565b600073ffffffffffffffffffffffffffffffffffffffff82169050919050565b60006200041482620003e7565b9050919050565b620004268162000407565b81146200043257600080fd5b50565b60008151905062000446816200041b565b92915050565b600080600080608085870312156200046957620004686200025e565b5b600085015167ffffffffffffffff8111156200048a576200048962000263565b5b6200049887828801620003b4565b945050602085015167ffffffffffffffff811115620004bc57620004bb62000263565b5b620004ca87828801620003b4565b9350506040620004dd8782880162000435565b9250506060620004f08782880162000435565b91505092959194509250565b600081519050919050565b7f4e487b7100000000000000000000000000000000000000000000000000000000600052602260045260246000fd5b600060028204905060018216806200054f57607f821691505b60208210810362000565576200056462000507565b5b50919050565b60008190508160005260206000209050919050565b60006020601f8301049050919050565b600082821b905092915050565b600060088302620005cf7fffffffffffffffffffffffffffffffffffffffffffffffffffffffffffffffff8262000590565b620005db868362000590565b95508019841693508086168417925050509392505050565b6000819050919050565b6000819050919050565b600062000628620006226200061c84620005f3565b620005fd565b620005f3565b9050919050565b6000819050919050565b620006448362000607565b6200065c62000653826200062f565b8484546200059d565b825550505050565b600090565b6200067362000664565b6200068081848462000639565b505050565b5b81811015620006a8576200069c60008262000669565b60018101905062000686565b5050565b601f821115620006f757620006c1816200056b565b620006cc8462000580565b81016020851015620006dc578190505b620006f4620006eb8562000580565b83018262000685565b50505b505050565b600082821c905092915050565b60006200071c60001984600802620006fc565b1980831691505092915050565b600062000737838362000709565b9150826002028217905092915050565b6200075282620004fc565b67ffffffffffffffff8111156200076e576200076d62000283565b5b6200077a825462000536565b62000787828285620006ac565b600060209050601f831160018114620007bf5760008415620007aa578287015190505b620007b6858262000729565b86555062000826565b601f198416620007cf866200056b565b60005b82811015620007f957848901518255600182019150602085019450602081019050620007d2565b8683101562000819578489015162000815601f89168262000709565b8355505b6001600288020188555050505b505050505050565b620008398162000407565b82525050565b60006020820190506200085660008301846200082e565b92915050565b60008115159050919050565b62000873816200085c565b82525050565b600060208201905062000890600083018462000868565b92915050565b61256780620008a66000396000f3fe608060405234801561001057600080fd5b50600436106100ea5760003560e01c806370a082311161008c578063b88d4fde11610066578063b88d4fde1461025b578063c87b56dd14610277578063d204c45e146102a7578063e985e9c5146102d7576100ea565b806370a08231146101f157806395d89b4114610221578063a22cb4651461023f576100ea565b8063095ea7b3116100c8578063095ea7b31461016d57806323b872dd1461018957806342842e0e146101a55780636352211e146101c1576100ea565b806301ffc9a7146100ef57806306fdde031461011f578063081812fc1461013d575b600080fd5b61010960048036038101906101049190611953565b610307565b604051610116919061199b565b60405180910390f35b610127610319565b6040516101349190611a46565b60405180910390f35b61015760048036038101906101529190611a9e565b6103ab565b6040516101649190611b0c565b60405180910390f35b61018760048036038101906101829190611b53565b6103c7565b005b6101a3600480360381019061019e9190611b93565b6104a3565b005b6101bf60048036038101906101ba9190611b93565b6105a5565b005b6101db60048036038101906101d69190611a9e565b6105c5565b6040516101e89190611b0c565b60405180910390f35b61020b60048036038101906102069190611be6565b6105d7565b6040516102189190611c22565b60405180910390f35b610229610691565b6040516102369190611a46565b60405180910390f35b61025960048036038101906102549190611c69565b610723565b005b61027560048036038101906102709190611dde565b610739565b005b610291600480360381019061028c9190611a9e565b610756565b60405161029e9190611a46565b60405180910390f35b6102c160048036038101906102bc9190611f02565b610768565b6040516102ce9190611c22565b60405180910390f35b6102f160048036038101906102ec9190611f5e565b6107a7565b6040516102fe919061199b565b60405180910390f35b60006103128261083b565b9050919050565b60606000805461032890611fcd565b80601f016020809104026020016040519081016040528092919081815260200182805461035490611fcd565b80156103a15780601f10610376576101008083540402835291602001916103a1565b820191906000526020600020905b81548152906001019060200180831161038457829003601f168201915b5050505050905090565b60006103b68261089c565b506103c082610924565b9050919050565b6103d0816105c5565b73ffffffffffffffffffffffffffffffffffffffff163373ffffffffffffffffffffffffffffffffffffffff1614806104565750600860009054906101000a900473ffffffffffffffffffffffffffffffffffffffff1673ffffffffffffffffffffffffffffffffffffffff163373ffffffffffffffffffffffffffffffffffffffff16145b610495576040517f08c379a000000000000000000000000000000000000000000000000000000000815260040161048c9061204a565b60405180910390fd5b61049f8282610961565b5050565b600073ffffffffffffffffffffffffffffffffffffffff168273ffffffffffffffffffffffffffffffffffffffff16036105155760006040517f64a0ae9200000000000000000000000000000000000000000000000000000000815260040161050c9190611b0c565b60405180910390fd5b60006105298383610524610977565b61097f565b90508373ffffffffffffffffffffffffffffffffffffffff168173ffffffffffffffffffffffffffffffffffffffff161461059f578382826040517f64283d7b0000000000000000000000000000000000000000000000000000000081526004016105969392919061206a565b60405180910390fd5b50505050565b6105c083838360405180602001604052806000815250610739565b505050565b60006105d08261089c565b9050919050565b60008073ffffffffffffffffffffffffffffffffffffffff168273ffffffffffffffffffffffffffffffffffffffff160361064a5760006040517f89c62b640000000000000000000000000000000000000000000000000000000081526004016106419190611b0c565b60405180910390fd5b600360008373ffffffffffffffffffffffffffffffffffffffff1673ffffffffffffffffffffffffffffffffffffffff168152602001908152602001600020549050919050565b6060600180546106a090611fcd565b80601f01602080910402602001604051908101604052809291908181526020018280546106cc90611fcd565b80156107195780601f106106ee57610100808354040283529160200191610719565b820191906000526020600020905b8154815290600101906020018083116106fc57829003601f168201915b5050505050905090565b61073561072e610977565b8383610b99565b5050565b6107448484846104a3565b61075084848484610d08565b50505050565b606061076182610ebf565b9050919050565b60006007600081548092919061077d906120d0565b9190505550600060075490506107938482610fd2565b61079d8184610ff0565b8091505092915050565b6000600560008473ffffffffffffffffffffffffffffffffffffffff1673ffffffffffffffffffffffffffffffffffffffff16815260200190815260200160002060008373ffffffffffffffffffffffffffffffffffffffff1673ffffffffffffffffffffffffffffffffffffffff16815260200190815260200160002060009054906101000a900460ff16905092915050565b6000634906490660e01b7bffffffffffffffffffffffffffffffffffffffffffffffffffffffff1916827bffffffffffffffffffffffffffffffffffffffffffffffffffffffff1916148061089557506108948261104c565b5b9050919050565b6000806108a88361112e565b9050600073ffffffffffffffffffffffffffffffffffffffff168173ffffffffffffffffffffffffffffffffffffffff160361091b57826040517f7e2732890000000000000000000000000000000000000000000000000000000081526004016109129190611c22565b60405180910390fd5b80915050919050565b60006004600083815260200190815260200160002060009054906101000a900473ffffffffffffffffffffffffffffffffffffffff169050919050565b610973828261096e610977565b61116b565b5050565b600033905090565b60008061098b8461112e565b9050600073ffffffffffffffffffffffffffffffffffffffff168373ffffffffffffffffffffffffffffffffffffffff16146109cd576109cc81848661117d565b5b600073ffffffffffffffffffffffffffffffffffffffff168173ffffffffffffffffffffffffffffffffffffffff1614610a5e57610a0f600085600080611241565b6001600360008373ffffffffffffffffffffffffffffffffffffffff1673ffffffffffffffffffffffffffffffffffffffff168152602001908152602001600020600082825403925050819055505b600073ffffffffffffffffffffffffffffffffffffffff168573ffffffffffffffffffffffffffffffffffffffff1614610ae1576001600360008773ffffffffffffffffffffffffffffffffffffffff1673ffffffffffffffffffffffffffffffffffffffff168152602001908152602001600020600082825401925050819055505b846002600086815260200190815260200160002060006101000a81548173ffffffffffffffffffffffffffffffffffffffff021916908373ffffffffffffffffffffffffffffffffffffffff160217905550838573ffffffffffffffffffffffffffffffffffffffff168273ffffffffffffffffffffffffffffffffffffffff167fddf252ad1be2c89b69c2b068fc378daa952ba7f163c4a11628f55a4df523b3ef60405160405180910390a4809150509392505050565b600073ffffffffffffffffffffffffffffffffffffffff168273ffffffffffffffffffffffffffffffffffffffff1603610c0a57816040517f5b08ba18000000000000000000000000000000000000000000000000000000008152600401610c019190611b0c565b60405180910390fd5b80600560008573ffffffffffffffffffffffffffffffffffffffff1673ffffffffffffffffffffffffffffffffffffffff16815260200190815260200160002060008473ffffffffffffffffffffffffffffffffffffffff1673ffffffffffffffffffffffffffffffffffffffff16815260200190815260200160002060006101000a81548160ff0219169083151502179055508173ffffffffffffffffffffffffffffffffffffffff168373ffffffffffffffffffffffffffffffffffffffff167f17307eab39ab6107e8899845ad3d59bd9653f200f220920489ca2b5937696c3183604051610cfb919061199b565b60405180910390a3505050565b60008373ffffffffffffffffffffffffffffffffffffffff163b1115610eb9578273ffffffffffffffffffffffffffffffffffffffff1663150b7a02610d4c610977565b8685856040518563ffffffff1660e01b8152600401610d6e949392919061216d565b6020604051808303816000875af1925050508015610daa57506040513d601f19601f82011682018060405250810190610da791906121ce565b60015b610e2e573d8060008114610dda576040519150601f19603f3d011682016040523d82523d6000602084013e610ddf565b606091505b506000815103610e2657836040517f64a0ae92000000000000000000000000000000000000000000000000000000008152600401610e1d9190611b0c565b60405180910390fd5b805181602001fd5b63150b7a0260e01b7bffffffffffffffffffffffffffffffffffffffffffffffffffffffff1916817bffffffffffffffffffffffffffffffffffffffffffffffffffffffff191614610eb757836040517f64a0ae92000000000000000000000000000000000000000000000000000000008152600401610eae9190611b0c565b60405180910390fd5b505b50505050565b6060610eca8261089c565b506000600660008481526020019081526020016000208054610eeb90611fcd565b80601f0160208091040260200160405190810160405280929190818152602001828054610f1790611fcd565b8015610f645780601f10610f3957610100808354040283529160200191610f64565b820191906000526020600020905b815481529060010190602001808311610f4757829003601f168201915b505050505090506000610f75611406565b90506000815103610f8a578192505050610fcd565b600082511115610fbf578082604051602001610fa7929190612237565b60405160208183030381529060405292505050610fcd565b610fc88461141d565b925050505b919050565b610fec828260405180602001604052806000815250611486565b5050565b806006600084815260200190815260200160002090816110109190612407565b507ff8e1a15aba9398e019f0b49df1a4fde98ee17ae345cb5f6b5e2c27f5033e8ce7826040516110409190611c22565b60405180910390a15050565b60007f80ac58cd000000000000000000000000000000000000000000000000000000007bffffffffffffffffffffffffffffffffffffffffffffffffffffffff1916827bffffffffffffffffffffffffffffffffffffffffffffffffffffffff1916148061111757507f5b5e139f000000000000000000000000000000000000000000000000000000007bffffffffffffffffffffffffffffffffffffffffffffffffffffffff1916827bffffffffffffffffffffffffffffffffffffffffffffffffffffffff1916145b806111275750611126826114a2565b5b9050919050565b60006002600083815260200190815260200160002060009054906101000a900473ffffffffffffffffffffffffffffffffffffffff169050919050565b6111788383836001611241565b505050565b61118883838361150c565b61123c57600073ffffffffffffffffffffffffffffffffffffffff168373ffffffffffffffffffffffffffffffffffffffff16036111fd57806040517f7e2732890000000000000000000000000000000000000000000000000000000081526004016111f49190611c22565b60405180910390fd5b81816040517f177e802f0000000000000000000000000000000000000000000000000000000081526004016112339291906124d9565b60405180910390fd5b505050565b808061127a5750600073ffffffffffffffffffffffffffffffffffffffff168273ffffffffffffffffffffffffffffffffffffffff1614155b156113ae57600061128a8461089c565b9050600073ffffffffffffffffffffffffffffffffffffffff168373ffffffffffffffffffffffffffffffffffffffff16141580156112f557508273ffffffffffffffffffffffffffffffffffffffff168173ffffffffffffffffffffffffffffffffffffffff1614155b8015611308575061130681846107a7565b155b1561134a57826040517fa9fbf51f0000000000000000000000000000000000000000000000000000000081526004016113419190611b0c565b60405180910390fd5b81156113ac57838573ffffffffffffffffffffffffffffffffffffffff168273ffffffffffffffffffffffffffffffffffffffff167f8c5be1e5ebec7d5bd14f71427d1e84f3dd0314c0f7b2291e5b200ac8c7c3b92560405160405180910390a45b505b836004600085815260200190815260200160002060006101000a81548173ffffffffffffffffffffffffffffffffffffffff021916908373ffffffffffffffffffffffffffffffffffffffff16021790555050505050565b606060405180602001604052806000815250905090565b60606114288261089c565b506000611433611406565b90506000815111611453576040518060200160405280600081525061147e565b8061145d846115cd565b60405160200161146e929190612237565b6040516020818303038152906040525b915050919050565b611490838361169b565b61149d6000848484610d08565b505050565b60007f01ffc9a7000000000000000000000000000000000000000000000000000000007bffffffffffffffffffffffffffffffffffffffffffffffffffffffff1916827bffffffffffffffffffffffffffffffffffffffffffffffffffffffff1916149050919050565b60008073ffffffffffffffffffffffffffffffffffffffff168373ffffffffffffffffffffffffffffffffffffffff16141580156115c457508273ffffffffffffffffffffffffffffffffffffffff168473ffffffffffffffffffffffffffffffffffffffff161480611585575061158484846107a7565b5b806115c357508273ffffffffffffffffffffffffffffffffffffffff166115ab83610924565b73ffffffffffffffffffffffffffffffffffffffff16145b5b90509392505050565b6060600060016115dc84611794565b01905060008167ffffffffffffffff8111156115fb576115fa611cb3565b5b6040519080825280601f01601f19166020018201604052801561162d5781602001600182028036833780820191505090505b509050600082602001820190505b600115611690578080600190039150507f3031323334353637383961626364656600000000000000000000000000000000600a86061a8153600a858161168457611683612502565b5b0494506000850361163b575b819350505050919050565b600073ffffffffffffffffffffffffffffffffffffffff168273ffffffffffffffffffffffffffffffffffffffff160361170d5760006040517f64a0ae920000000000000000000000000000000000000000000000000000000081526004016117049190611b0c565b60405180910390fd5b600061171b8383600061097f565b9050600073ffffffffffffffffffffffffffffffffffffffff168173ffffffffffffffffffffffffffffffffffffffff161461178f5760006040517f73c6ac6e0000000000000000000000000000000000000000000000000000000081526004016117869190611b0c565b60405180910390fd5b505050565b600080600090507a184f03e93ff9f4daa797ed6e38ed64bf6a1f01000000000000000083106117f2577a184f03e93ff9f4daa797ed6e38ed64bf6a1f01000000000000000083816117e8576117e7612502565b5b0492506040810190505b6d04ee2d6d415b85acef8100000000831061182f576d04ee2d6d415b85acef8100000000838161182557611824612502565b5b0492506020810190505b662386f26fc10000831061185e57662386f26fc10000838161185457611853612502565b5b0492506010810190505b6305f5e1008310611887576305f5e100838161187d5761187c612502565b5b0492506008810190505b61271083106118ac5761271083816118a2576118a1612502565b5b0492506004810190505b606483106118cf57606483816118c5576118c4612502565b5b0492506002810190505b600a83106118de576001810190505b80915050919050565b6000604051905090565b600080fd5b600080fd5b60007fffffffff0000000000000000000000000000000000000000000000000000000082169050919050565b611930816118fb565b811461193b57600080fd5b50565b60008135905061194d81611927565b92915050565b600060208284031215611969576119686118f1565b5b60006119778482850161193e565b91505092915050565b60008115159050919050565b61199581611980565b82525050565b60006020820190506119b0600083018461198c565b92915050565b600081519050919050565b600082825260208201905092915050565b60005b838110156119f05780820151818401526020810190506119d5565b60008484015250505050565b6000601f19601f8301169050919050565b6000611a18826119b6565b611a2281856119c1565b9350611a328185602086016119d2565b611a3b816119fc565b840191505092915050565b60006020820190508181036000830152611a608184611a0d565b905092915050565b6000819050919050565b611a7b81611a68565b8114611a8657600080fd5b50565b600081359050611a9881611a72565b92915050565b600060208284031215611ab457611ab36118f1565b5b6000611ac284828501611a89565b91505092915050565b600073ffffffffffffffffffffffffffffffffffffffff82169050919050565b6000611af682611acb565b9050919050565b611b0681611aeb565b82525050565b6000602082019050611b216000830184611afd565b92915050565b611b3081611aeb565b8114611b3b57600080fd5b50565b600081359050611b4d81611b27565b92915050565b60008060408385031215611b6a57611b696118f1565b5b6000611b7885828601611b3e565b9250506020611b8985828601611a89565b9150509250929050565b600080600060608486031215611bac57611bab6118f1565b5b6000611bba86828701611b3e565b9350506020611bcb86828701611b3e565b9250506040611bdc86828701611a89565b9150509250925092565b600060208284031215611bfc57611bfb6118f1565b5b6000611c0a84828501611b3e565b91505092915050565b611c1c81611a68565b82525050565b6000602082019050611c376000830184611c13565b92915050565b611c4681611980565b8114611c5157600080fd5b50565b600081359050611c6381611c3d565b92915050565b60008060408385031215611c8057611c7f6118f1565b5b6000611c8e85828601611b3e565b9250506020611c9f85828601611c54565b9150509250929050565b600080fd5b600080fd5b7f4e487b7100000000000000000000000000000000000000000000000000000000600052604160045260246000fd5b611ceb826119fc565b810181811067ffffffffffffffff82111715611d0a57611d09611cb3565b5b80604052505050565b6000611d1d6118e7565b9050611d298282611ce2565b919050565b600067ffffffffffffffff821115611d4957611d48611cb3565b5b611d52826119fc565b9050602081019050919050565b82818337600083830152505050565b6000611d81611d7c84611d2e565b611d13565b905082815260208101848484011115611d9d57611d9c611cae565b5b611da8848285611d5f565b509392505050565b600082601f830112611dc557611dc4611ca9565b5b8135611dd5848260208601611d6e565b91505092915050565b60008060008060808587031215611df857611df76118f1565b5b6000611e0687828801611b3e565b9450506020611e1787828801611b3e565b9350506040611e2887828801611a89565b925050606085013567ffffffffffffffff811115611e4957611e486118f6565b5b611e5587828801611db0565b91505092959194509250565b600067ffffffffffffffff821115611e7c57611e7b611cb3565b5b611e85826119fc565b9050602081019050919050565b6000611ea5611ea084611e61565b611d13565b905082815260208101848484011115611ec157611ec0611cae565b5b611ecc848285611d5f565b509392505050565b600082601f830112611ee957611ee8611ca9565b5b8135611ef9848260208601611e92565b91505092915050565b60008060408385031215611f1957611f186118f1565b5b6000611f2785828601611b3e565b925050602083013567ffffffffffffffff811115611f4857611f476118f6565b5b611f5485828601611ed4565b9150509250929050565b60008060408385031215611f7557611f746118f1565b5b6000611f8385828601611b3e565b9250506020611f9485828601611b3e565b9150509250929050565b7f4e487b7100000000000000000000000000000000000000000000000000000000600052602260045260246000fd5b60006002820490506001821680611fe557607f821691505b602082108103611ff857611ff7611f9e565b5b50919050565b7f4e6f74206f776e6572206f72206d61726b6574706c6163650000000000000000600082015250565b60006120346018836119c1565b915061203f82611ffe565b602082019050919050565b6000602082019050818103600083015261206381612027565b9050919050565b600060608201905061207f6000830186611afd565b61208c6020830185611c13565b6120996040830184611afd565b949350505050565b7f4e487b7100000000000000000000000000000000000000000000000000000000600052601160045260246000fd5b60006120db82611a68565b91507fffffffffffffffffffffffffffffffffffffffffffffffffffffffffffffffff820361210d5761210c6120a1565b5b600182019050919050565b600081519050919050565b600082825260208201905092915050565b600061213f82612118565b6121498185612123565b93506121598185602086016119d2565b612162816119fc565b840191505092915050565b60006080820190506121826000830187611afd565b61218f6020830186611afd565b61219c6040830185611c13565b81810360608301526121ae8184612134565b905095945050505050565b6000815190506121c881611927565b92915050565b6000602082840312156121e4576121e36118f1565b5b60006121f2848285016121b9565b91505092915050565b600081905092915050565b6000612211826119b6565b61221b81856121fb565b935061222b8185602086016119d2565b80840191505092915050565b60006122438285612206565b915061224f8284612206565b91508190509392505050565b60008190508160005260206000209050919050565b60006020601f8301049050919050565b600082821b905092915050565b6000600883026122bd7fffffffffffffffffffffffffffffffffffffffffffffffffffffffffffffffff82612280565b6122c78683612280565b95508019841693508086168417925050509392505050565b6000819050919050565b60006123046122ff6122fa84611a68565b6122df565b611a68565b9050919050565b6000819050919050565b61231e836122e9565b61233261232a8261230b565b84845461228d565b825550505050565b600090565b61234761233a565b612352818484612315565b505050565b5b818110156123765761236b60008261233f565b600181019050612358565b5050565b601f8211156123bb5761238c8161225b565b61239584612270565b810160208510156123a4578190505b6123b86123b085612270565b830182612357565b50505b505050565b600082821c905092915050565b60006123de600019846008026123c0565b1980831691505092915050565b60006123f783836123cd565b9150826002028217905092915050565b612410826119b6565b67ffffffffffffffff81111561242957612428611cb3565b5b6124338254611fcd565b61243e82828561237a565b600060209050601f831160018114612471576000841561245f578287015190505b61246985826123eb565b8655506124d1565b601f19841661247f8661225b565b60005b828110156124a757848901518255600182019150602085019450602081019050612482565b868310156124c457848901516124c0601f8916826123cd565b8355505b6001600288020188555050505b505050505050565b60006040820190506124ee6000830185611afd565b6124fb6020830184611c13565b9392505050565b7f4e487b7100000000000000000000000000000000000000000000000000000000600052601260045260246000fdfea26469706673582212207e49c4a9e73b9635fa0f9e3fa852cecf67e4cce7ddae9cbc2b1a0338fba790e164736f6c63430008140033a2646970667358221220a87f5fb985a66ed1c27ab87ae8e0a4547c5b050335e1fe6494d75c55fccdfacb64736f6c63430008140033",
  "linkReferences": {},
  "deployedLinkReferences": {}
}